:020000040800F2
:1000000018200020ED010008991800089118000838
:100010009518000841140008E12D000800000000B8
:10002000000000000000000000000000152A000889
:100030007D160008000000006D020008012B00087A
:10004000070200080702000807020008070200086C
:10005000070200080702000807020008070200085C
:10006000070200080702000811170008070200082D
:10007000070200080702000807020008070200083C
:10008000070200080702000807020008070200082C
:10009000070200080702000807020008070200081C
:1000A000070200080702000807020008070200080C
:1000B000D12B000807020008F12B000807020008F6
:1000C00007020008070200080702000807020008EC
:1000D00007020008070200080702000807020008DC
:1000E00007020008070200080702000807020008CC
:1000F00007020008070200080702000807020008BC
:1001000007020008070200080702000807020008AB
:10011000070200080702000807020008070200089B
:10012000070200080702000807020008070200088B
:1001300000F002F800F04AF80AA090E8000C8244AF
:100140008344AAF10107DA4501D100F03FF8AFF28C
:10015000090EBAE80F0013F0010F18BFFB1A43F0A5
:10016000010318472837000048370000103A24BF21
:1001700078C878C1FAD8520724BF30C830C144BF0C
:1001800004680C607047000000230024002500264E
:10019000103A28BF78C1FBD8520728BF30C148BFEA
:1001A0000B607047662903F06182642900F0A0802B
:1001B000002070471FB500F0F1FB04000020002173
:1001C00002F028FFE0601FBD10B510BD00F002FD79
:1001D0001146FFF7EFFF02F093FE00F020FD03B49D
:1001E000FFF7F2FF03BC02F018FE00000948804749
:1001F00009480047FEE7FEE7FEE7FEE7FEE7FEE709
:10020000FEE7FEE7FEE7FEE704480549054A064B20
:1002100070470000112B000831010008181600205B
:10022000182000201818002018180020EFF3108064
:1002300072B6704780F3108870471D481D490160F1
:10024000002080F309881C48012101701B484FF0F1
:100250008051016062B6FEE718484FF0805101609E
:10026000704716484FF080510160704772B6EFF347
:10027000098028B1203880E8F00F1149096808602A
:1002800000B5104880475DF804EB0F480F490A7825
:1002900002700B480E490A680260106890E8F00F7F
:1002A000203080F309884EF0040E62B6704700BF1C
:1002B00020ED00E00000FFFF5600002004ED00E00C
:1002C0005C000020252100084B0000204C0000208D
:1002D00064000020704700000FB4044910B503AA61
:1002E000029800F049FB10BC5DF814FB04000020EC
:1002F0002DE9F0410646002410687529314616A5FF
:1003000010D0AFF30080002802DA404213A507E0C6
:1003100031688A0701D512A502E0490704D511A565
:10032000012401E0AFF3008000210A2206F1240736
:1003300009E0B0FBF2FCB0FBF2F302FB1C00303032
:1003400078541846491C0028F3D123462A463046E3
:10035000BDE8F04100F0A8B8000000002D0000004A
:100360002B000000200000002DE9F05F89460446C4
:100370004FF0000ADFF824B1FB44C0F820A020466B
:10038000E168884700287DD0252806D0D4E90121DE
:100390009047206A401C2062F1E700255F46204616
:1003A000E16888472028064607DB312E05D2B819B8
:1003B00010F8200C08B10543F1E7A80701D525F096
:1003C0000405C4F81CA00027C4F818A02A2E09D0E0
:1003D000304602F01BFD38B304EB8708303EC8F806
:1003E000186019E059F8041B204604EB870291615C
:1003F000E1688847012F064618D1E069002820DA15
:1004000025F020051DE0D8F8180000EB800006EB71
:1004100040003038C8F818002046E1688847064692
:1004200002F0F4FC0028EED1012F0AD02E2E08D1C4
:100430002046E16888477F1C0646022F45F02005CC
:10044000C4DBA069002803DA404245F00105A06141
:10045000E80701D025F01005A6B1A6F14100192842
:1004600002D8203645F400654A46314620462560CC
:100470004D46FFF797FE60B1012807D0ED1D25F02E
:10048000070000E007E000F1080978E705F104093A
:1004900075E730467AE7206ABDE8F09F68340000CF
:1004A00070477047704770472DE9F0470D469946F1
:1004B0009246044600F124080168880604D5E069E4
:1004C00021F01001216000E00120A84201DD471B5E
:1004D00000E00027A1697A1902EB0900081AA0615F
:1004E0002078C00602D42046AFF30080002608E042
:1004F000D4E901211AF806009047206A401C761CB6
:1005000020624E45F4DB2078C0060AD52046AFF3C2
:10051000008006E0D4E9012130209047206A401C89
:100520002062381EA7F10107F4DC07E0D4E90121BD
:1005300018F805009047206A401C2062281EA5F18B
:100540000105F3DC2046AFF300802078000602D5D9
:100550000220BDE8F0870120FBE770472DE9FF4F3F
:100560000C461E464FF0FF378BB0D2E90001DDF894
:1005700060800A908A46C1F30A5505B93D460021BC
:1005800008464FF00000BAF1000F00F4400005DA11
:1005900000EB80004FF4400101EA50004FEA90590F
:1005A000B9F1010F00DDB9460A9850EA4A000ED0B1
:1005B00044F61050A5F2FF3545432F14B8F1000F53
:1005C0001ED07542291E1EDDC9F100021CE0B8F1E3
:1005D000010F4FF0000001D0302103E0F24305E0AD
:1005E0002154401CB042FBDB304600220021215444
:1005F0000B99C1F80880C1E900200FB0BDE8F08F69
:10060000BD1B6D1CDEE74A4600DA694206A800F011
:1006100067FA06AB93E8070003AB83E80700504690
:100620000A9900F045FB8DE80700A0F500501F383F
:1006300000900398002D0ADD42F21F014A4608444B
:10064000002303A90390684600F0AEFD09E0A0F581
:1006500000504A461F38002303A90390684600F063
:10066000B8FD8DE807000004000C03D04FF0FF3008
:10067000410800E01046B8F1000F03D000220092BC
:1006800015461EE0751E05D400F08CF93032625517
:100690006D1EF9D5B3460122084302D000227F1C0B
:1006A00004E02078302801D100227F1E002A09971B
:1006B00084D01DE0112D07DA00F074F93032625554
:1006C0006D1C50EA0102F5D1084302D00098C8B170
:1006D0000EE00021681E05E0235C625C6354225436
:1006E000401E491C8142F7DBAB46A81B401E099007
:1006F000002004F80B000B98099AC0F80880C0E9A4
:10070000002B7AE711264FF0000857E72DE9F04F4C
:1007100088460446D21D22F0070191B0D1E90001BC
:10072000CDE90A0102F05EFB02460B98C00F01D032
:100730002D2007E02068810701D52B2002E0202131
:1007400001EAC000032A099001D0072A05DB03460D
:100750004146204600F084F90BE12078800601D55F
:10076000E06900E00620B8F1650F814606D0B8F1D7
:10077000660F18D0B8F1670F70D131E00020B9F1E1
:10078000110F009001DB112301E009F101030AAA16
:1007900001A90CA8FFF7E2FEDDE90C70002609F1C3
:1007A0000105834647E001204B4600904FF000478B
:1007B0000AAA01A90CA8FFF7D1FEDDE90DB00C993A
:1007C0005D46002610B909F101000D18B9EB0500CE
:1007D00003D4C0F1FF3609F10105A5EB09002BE0B8
:1007E000B9F1010F01DA4FF001090020B9F1110F41
:1007F0000090484601DD112300E003460AAA01A942
:100800000CA8FFF7ABFEDDE90C704D4600268346D1
:10081000207800070AD4AB4500DA5D4601A8012D17
:1008200004DD411911F8011C302907D04F4502DAC7
:1008300017F1040F04DA012082460FE06D1EEEE787
:10084000002F02DCED1B3E4403E0781CA84200DDD3
:100850007D1CB81B00F1010A4FF00047207800070B
:1008600003D4AA4501DB4FF0FF3A0021B7F1004F56
:100870000DF143088DF8431024D002202B23002FC4
:1008800001DA7F422D230A21021EA0F1010000DCC3
:100890005FB197FBF1FC97FBF1F201FB1C7C174663
:1008A0000CF1300C08F801CDEEE7A8F1010003705F
:1008B0002188090501D5452100E06521A0F1010845
:1008C00000F8011C09980FA9A1EB0807FF1D00B152
:1008D0000120411901EBEA70A1693844081A401E51
:1008E000A0612078C00602D42046AFF300800998AA
:1008F00028B1D4E901219047206A401C2062207869
:10090000C00622D52046AFF300801EE0002E04DB97
:10091000B34502DD01A8805D00E03020D4E901216B
:100920009047206A401C2062761CAAF101005FEA11
:10093000000A0AD100F032F8C0680168405CD4E9CE
:1009400001219047206A401C2062281EA5F1010564
:10095000DCDC07E0D4E9012118F8010B9047206A9C
:10096000401C2062381EA7F10107F3DC2046AFF3DC
:100970000080032011B041E6074B70B50D467B4463
:1009800000F05BF80446284600F01CF910B14FF067
:10099000FF3070BD204670BD5B25000000487047E9
:1009A000D815002030B5B0F10A024FEA900E71F16F
:1009B00000034EEA817EB0EB0E0061EB91014FEA3D
:1009C000101E4EEA017E10EB0E0041EB11114FEAB2
:1009D000102E4EEA016E10EB0E0041EB11214FEA92
:1009E000104E4EEA014E10EB0E0041EB1141401843
:1009F00041F100014FEAD00040EA41704FEAD101D5
:100A000010EB80054FEA810444EA907444EB010442
:100A10006D1944EB0404521BA3414FF0000348BF7F
:100A20000A3200D530BD401C41F1000130BD00004C
:100A300001694A1C02610878704700B58FB0CDE9A2
:100A400001310021059105497944CDE90310114692
:100A50006846FFF789FC0FB000BD0000E5FFFFFF0F
:100A60002DE9F0411F46044603260168072A01F4D8
:100A7000006004DB08B116A505E016A503E008B187
:100A800015A500E015A521F010002060A069C01E8A
:100A9000A0610FB1401EA0612046AFF300804FB1AE
:100AA000D4E9012138469047206A401C2062C01CCE
:100AB000206206E0206AFAE7D4E9012115F8010B6B
:100AC0009047761EF8D22046AFF30080BDE8F08153
:100AD0004E414E006E616E00494E4600696E6600E2
:100AE0002DE9F047814616468AB0354878440DC84E
:100AF0008DE80D0032487844801C03AC0DC884E8B2
:100B00000D0041F69B300844372190FBF1F290FB39
:100B1000F1F5A5F1800501FB12041B3C02D56442EE
:100B2000012000E00020DFF898A080460027FA446A
:100B3000AAF1BE0A0EE0E0070AD03246684607EB8B
:100B4000470101230AEB810100F043FB8DE8070018
:100B500064107F1C002CEED1194F7F44AE3F19E08A
:100B6000E80715D007EB04100DF1180A90E80E0005
:100B70008AE80E00C068F04201D198190890324608
:100B8000012306A903A800F024FB03AB83E80700B8
:100B90006D10641C002DE3D14FF00103324669460D
:100BA000B8F1000F03A802D000F0FEFA01E000F057
:100BB00010FBC9E90001C9F808200AB0BDE8F087B8
:100BC000842D0000007B00F08000704700487047D3
:100BD000B81500207546FFF7F9FFAE4605006946D7
:100BE000534620F00700854618B020B5FFF70CFBF0
:100BF000BDE820404FF000064FF000074FF000081E
:100C00004FF0000B21F00701AC46ACE8C009ACE89E
:100C1000C009ACE8C009ACE8C0098D46704710B502
:100C20000446AFF300802046BDE81040FFF7D7BA76
:100C30004FF0013C50F8042B51F8043B9A4221D16B
:100C4000A2EB0C03934313EACC1317D150F8042BF7
:100C500051F8043B9A4215D1A2EB0C03934313EADB
:100C6000CC130BD150F8042B51F8043B9A4209D114
:100C7000A2EB0C03934313EACC13DBD04FF000003C
:100C8000704700BFD01A01BAB1FA81F101F0180122
:100C900022FA01F0CB40C1F12001DBB2C0B2C01A90
:100CA0002CFA01F3D11A914311EAC311E6D170472E
:100CB0005FEA400C08BF91F0000F4FEA8C234FEA27
:100CC000C12243EA51514FEA1C5018BF00F5F040D1
:100CD0004FEA300018BF41F000415FEA6C5C00F061
:100CE0002980BCF1FF3F08BF40F080407047130CE3
:100CF00006BF12044FF0100C4FF0000C130E04BF8F
:100D000012020CF1080C130F04BF12010CF1040CB9
:100D1000930F04BF92000CF1020CD30F04BF5200DA
:100D20000CF1010C11464FF00002A0F11F00A0EBE6
:100D30000C00704711F0004F08BF704731F00041C0
:100D40003FF4D5AF0B0C06BF09044FF0100C4FF069
:100D5000000C0B0E04BF09020CF1080C0B0F04BFB2
:100D600009010CF1040C8B0F04BF89000CF1020C7B
:100D7000CB0F04BF49000CF1010CCCF12003A0EB18
:100D80000C0022FA03F302FA0CF241EA030100F12B
:100D90000100704720F07F4C80EA030023F07F477A
:100DA000ACEB070303F57C5300F0004003F1FF03B5
:100DB0002DE980494FEA154B09B44FEA144325EA5F
:100DC0000B4E24EA03480FF2042606EB13274908CA
:100DD0003E785FEA320203FB0667C7F5000707FBB0
:100DE00006F64FEA54374FEAD64606F1020607FBED
:100DF000066CCCF1005C4FEA1C472CEA074C07FB61
:100E000006F40CFB06F504EB15464FEA961634BFC4
:100E100000204FF000404FEAD13706FB07FC4FEAB5
:100E20001C4C0CFB0BF7D21B03FB0CF761EB07010F
:100E30000CFB0EF7B0EB074072EB17420CFB08F708
:100E400034BFA2EB0742B2EB074261EB17414FEA16
:100E50000C444FEA910706FB07FC4FEA1C4C0CFBC5
:100E60000BF7B0EBC74072EB573203FB0CF734BF04
:100E7000A2EBC742B2EBC74261EB57310CFB0EF756
:100E8000B0EBC70072EB57720CFB08F734BFA2EB54
:100E9000C702B2EBC70261EB5771039F4FEA816152
:100EA00041EA921104EBCC044FEAD1374FEA826257
:100EB00006FB07FC42EA90124FEA80604FEA1C4CA6
:100EC0000CFB0BF7D21B03FB0CF761EB07010CFBD0
:100ED0000EF7B0EB074072EB17420CFB08F734BF7C
:100EE000A2EB0742B2EB074261EB17414FEA8C5588
:100EF0004FEA910704EB9C2406FB07FC4FEA1C4CCD
:100F00000CFB0BF7B0EBC74072EB573203FB0CF74F
:100F100034BFA2EBC742B2EBC74261EB57310CFBC7
:100F20000EF7B0EBC70072EB57720CFB08F734BF3B
:100F3000A2EBC702B2EBC70261EB577115EB4C2570
:100F40004FEA816141EA92114FEA82624FEAD1375A
:100F500042EA901206FB07FC44F100044FEA80606D
:100F60004FEA1C4C0CFB0BF7D21B03FB0CF761EB9D
:100F700007010CFB0EF7B0EB074072EB17420CFBBE
:100F800008F734BFA2EB0742B2EB074261EB17410F
:100F900015EB1C154FEA813141EA92414FEA82324A
:100FA00042EA90424FEA80304FEA0C7644F1000466
:100FB00048EA03434EEA0B484FF0000EB2EB080C30
:100FC00071EB030724BF624639464EEB0E0E4FF01D
:100FD000000B0018524149414BEB0B0BB2EB080CD4
:100FE00071EB03077BF1000B24BF624639464EEBE1
:100FF0000E0E4FF0000B0018524149414BEB0B0B0A
:10100000B2EB080C71EB03077BF1000B24BF6246C7
:1010100039464EEB0E0E51EA020718BF46F00106A4
:1010200016EB0E7655F1000254F1000103D5BDE830
:101030008901BDE80088BDE88901BDE80048B6190E
:10104000524141EB0101A3F10103704780807F7E93
:101050007D7C7B7A7978777676757473727171702E
:101060006F6E6E6D6C6C6B6A6A69686867666665E0
:101070006464636362616160605F5F5E5E5D5D5C6E
:101080005C5B5B5A5A5959585857575656555555DF
:101090005454535352525251515050504F4F4F4E3F
:1010A0004E4D4D4D4C4C4C4B4B4B4A4A4A4949498D
:1010B00048484847474747464646454545444444CF
:1010C000444343434342424242414141002B9C46F8
:1010D00030D477002BD01CB54FEA370703B44FF05C
:1010E00010004FF01001BAF1000F06D0BCF1000F54
:1010F000DCBF40F0080040F008014FF000000FBCDA
:10110000BDE810400BF1010BBBF1010F08BF5FEA16
:10111000170722BF12F1010211F101014FF0004146
:1011200043F1000300F0004043EA00007047F9D3A8
:101130005708D0E746EA064613F1400F4FEA164635
:101140001FDD13F1200FDFBF16430A4600212033B5
:101150005B42BED0C3F1200746EA064602FA07F713
:101160004FEA164646EA0706C3F1200722FA03F2C1
:1011700001FA07F721FA03F14FF0000342EA0702F0
:10118000A7E746EA020646EA06464FEA164646EA58
:101190000106BCBF46EA0646360C4FF000034FF08E
:1011A00000024FF0000194E72DE9804C9A469346E7
:1011B00070B491E8380007C831EA400C48BF34EAFF
:1011C000430C03D5FFF7E6FDFFF780FFF0BCBDE859
:1011D000008C2DE9804C9A46934670B491E8380013
:1011E00007C810F0804F08BF13F0804F03D100F004
:1011F00005F8FFF76BFFF0BCBDE8008C20F07F47DF
:1012000080EA030023F07F4C07EB0C03A3F57C532B
:1012100000F00040A3F1FE0392F0000F00F0B38055
:1012200095F0000F00F077802DE901494FEA114059
:101230004FEA144621EA004800FB06FC24EA064770
:1012400008FB06F607FB08F800FB07F718EB064853
:101250004CEB164C4FEA124B18EB07484FEA154679
:101260004CEB174022EA0B4E0BFB06FC25EA064727
:101270000EFB06F607FB0EFE0BFB07F71EEB064EFA
:101280004CEB164C4FF000061EEB074E4CEB174B89
:1012900018EB0B0840F1000018EB0E0B58EB0008A0
:1012A00040F100008F1A4FF000013CBFC943661B9C
:1012B00014BFB5EB040C00213CBFC943F61B4FEA39
:1012C00017444EEA8E0E27EA04454FEA1C4704FBFA
:1012D00007622CEA074C05FB07F70CFB05F604FB3D
:1012E0000CFC16EB074642EB174216EB0C4642EBA2
:1012F0001C421BEB060658EB0202414146EA9E06E1
:1013000001D5BDE80189B619524141EB0101A3F1B4
:101310000103BDE801894FEA14454FEA114724EA69
:10132000054621EA074C05FB07F406FB07F70CFB13
:1013300006F105FB0CFC11EB074144EB17444FEAA7
:10134000124711EB0C4144EB1C4422EA074C05FB0D
:1013500007F206FB07F70CFB06F605FB0CFC16EB89
:10136000074642EB174216EB0C4642EB1C456A1847
:1013700054F1000148BF7047B619524141EB0101D9
:10138000A3F10103704795F0000F37D04FEA1142E7
:101390004FEA144721EA024624EA074C02FB07F110
:1013A00006FB07F70CFB06F402FB0CFC14EB0744EE
:1013B00041EB17414FEA154714EB0C4441EB1C413C
:1013C00025EA074C02FB07F506FB07F70CFB06F6C0
:1013D00002FB0CFC16EB074645EB174516EB0C46DB
:1013E00045EB1C42121951F1000148BF7047B61974
:1013F000524141EB0101A3F1010370474FEA14454B
:101400004FEA114724EA054621EA074C05FB07F19C
:1014100006FB07F70CFB06F24FF0000605FB0CFC81
:1014200012EB074241EB174112EB0C4251EB1C410E
:1014300048BF7047921841EB0101A3F101037047C7
:1014400000BFFEE710B5002400F02AF804E0601C9D
:10145000C4B2012000F038F94FF480610F4800F069
:101460000AFA012801D1642CF1DB642C01DB012094
:1014700010BD002404E0601CC4B2012000F024F977
:101480004FF48061054800F0F6F908B9642CF2DBEE
:10149000642C01DB0120EBE70020E9E7002001409C
:1014A00008B50121080201F03BFA4FF48060ADF865
:1014B000000001208DF8020048208DF803006946E5
:1014C000014800F04DF908BD0020014008B5012198
:1014D000080201F025FA4FF48060ADF80000012009
:1014E0008DF8020010208DF803006946014800F0D5
:1014F00037F908BD0020014010B5002404E0601C4D
:10150000C4B2012000F0E0F84FF48061114800F00F
:10151000B2F9012801D1642CF1DB002404E0601C45
:10152000C4B2012000F0D0F84FF48061094800F007
:10153000A2F908B9642CF2DB202000F0C5F84FF4C2
:101540008061044800F097F9012800D110BD002007
:10155000FCE700000020014070B50024FFF7A0FF69
:10156000002506E06006040EFFF7C6FF0443681C72
:10157000C5B2082DF6DB204670BD00002DE9FF5FE7
:1015800081468A4600F05EF8FFF75CFF012802D131
:1015900004B0BDE8F09F002405E0FFF7DDFF02A9DD
:1015A0000855601CC4B2052CF7DB9DF808009DF8B7
:1015B000091008449DF80A1008449DF80B100844CF
:1015C0009DF80C10884237D19DF80B009DF80A1049
:1015D00040EA01200FFA80FB584601F0BBFE0746A7
:1015E0000022164B01F0CEFE0022154BCDE9000182
:1015F00001F058FD054601F023FDC9F800009DF8F3
:1016000009009DF8081040EA01200FFA80FB5846B7
:1016100001F0A0FE07460022084B01F0B3FE05468C
:101620000022074B01F03EFDCDE9000101F008FD6D
:10163000CAF800000020ABE70220A9E70000F03F55
:101640000000704010B5FFF741FF4FF480610A4879
:1016500000F01CF94FF48061074800F015F91E20D6
:1016600000F00EF84FF48061034800F00FF91E20DF
:1016700000F02AF810BD0000002001407047000073
:1016800070B504460E480078012811D10D48008835
:10169000844206DB0B48008894FBF0F5284600F0F6
:1016A00043FD0848008894FBF0F100FB114084B230
:1016B0004FF47A7104FB01F000F006F870BD0000F1
:1016C000560000200200002070B503464FF0E026CF
:1016D00075690E4E367803FB06F400224FF0E026C3
:1016E000B16910E04FF0E026B06988420BD0884223
:1016F00002D20E1A324402E02E1A0E44324401463F
:10170000A24200D300E0EDE700BF70BD0000002062
:1017100010B500F075F9102000F00EF8012802D184
:10172000102000F003F800F07DF910BD01490860B9
:101730007047000014040140014600200022074BBE
:101740001B6803EA0102054B14331B680B4013B1FD
:101750000AB1012000E000207047000000040140B1
:101760002DE9F04102460025002600200023002438
:10177000002791F803C00CF00F0591F803C00CF09E
:10178000100CBCF1000F03D091F802C04CEA050523
:1017900091F800C0BCF1000F31D0146800202BE09C
:1017A0004FF0010C0CFA00F3B1F800C00CEA03068C
:1017B0009E4220D183004FF00F0C0CFA03F7BC437C
:1017C00005FA03FC4CEA040491F803C0BCF1280FAD
:1017D00006D14FF0010C0CFA00FCC2F814C00AE06C
:1017E00091F803C0BCF1480F05D14FF0010C0CFA81
:1017F00000FCC2F810C0401C0828D1D31460B1F816
:1018000000C0BCF1FF0F34DD546800202EE000F171
:10181000080C4FF0010808FA0CF3B1F800C00CEA0C
:1018200003069E4221D183004FF00F0C0CFA03F700
:10183000BC4305FA03FC4CEA040491F803C0BCF174
:10184000280F05D100F1080C08FA0CF8C2F8148032
:1018500091F803C0BCF1480F07D100F1080C4FF01C
:10186000010808FA0CF8C2F81080401C0828CED3F2
:101870005460BDE8F0810246002093680B400BB134
:10188000012000E00020704741617047016170470E
:1018900000BFFEE700BFFEE77047000002490143BA
:1018A000024A1160704700000000FA050CED00E0EC
:1018B000174818481848194819481A481A481B4820
:1018C0001B481C481C481D481D481E481E481F48F0
:1018D0001F482048204821482148224822482348C0
:1018E0002348244824482548254826482648274890
:1018F000274828482848294829482A482A482B4860
:101900002B482C482C482D482D482E4800BF7047A6
:1019100070370008743700087A3700087C370008F1
:10192000783700087E3700088037000882370008C3
:101930008437000886370008883700088A3700088F
:101940008C3700088E37000890370008923700085F
:101950009437000896370008983700089A3700082F
:101960009C3700089E370008A0370008A2370008FF
:10197000A4370008A6370008A8370008AA370008CF
:10198000AC370008AE370008B0370008B23700089F
:10199000B4370008B6370008B8370008BA3700086F
:1019A000BC370008BE370008C0370008C23700083F
:1019B000C6370008C8370008CA370008CC37000807
:1019C000CE370008E237000810B500F017F800F035
:1019D000FFFC00F027FD00F047FD00F0C9FC00F01F
:1019E00089FC00F0DBFD00F005FE00F07DFD00F05D
:1019F000A3FD00F004F8FFF75BFF10BD70477047D0
:101A000006480078012808D105480078FF2804D24C
:101A100003480078401C02490870704756000020B7
:101A20004900002010B500241A480078012830D160
:101A3000FEF7FCFB04461848007820B116480078F1
:101A4000401E1549087014480078F8B9134800780A
:101A5000E0B900F031FE12481249097850F821002F
:101A6000114908600F4800781049097888420DD064
:101A70000D480068C06B401C0B490968C8630C48DE
:101A80000068401C0A490860FEF7EBFB2046FEF7A1
:101A9000D1FB10BD56000020490000204A00002064
:101AA000500C00204C000020640000204B0000205F
:101AB0003000002010B50B48007890B900F0FCFD14
:101AC000094800780949087009480749097850F819
:101AD0002100084908600846006807490860FEF7C9
:101AE000ACFB10BD560000204C0000204B00002035
:101AF000500C0020640000205C00002010B5002481
:101B0000022000F011FBFEF791FB044600200B4978
:101B100008602046FEF78EFB642000F005FBFEF710
:101B200085FB044605480068054908600120054911
:101B300008702046FEF77EFB10BD00005800002014
:101B40004000002048000020704700002DE9FE4FB3
:101B500006460F4690461C464FF000093F2C02D91E
:101B60002A20BDE8FE8FFEF761FB81461E48007803
:101B700020B14846FEF75EFB3C20F2E71B4850F8D8
:101B8000240060BB0120194941F824004846FEF7B3
:101B900051FB002342463946304600F017FA824690
:101BA00000200090019003460246514602902046D4
:101BB00000F098FD054635B90D48007801280CD194
:101BC00000F040FD09E0FEF731FB814600200749A7
:101BD00041F824004846FEF72DFB2846C1E7484659
:101BE000FEF728FB2820BCE749000020500C00200D
:101BF000560000202DE9F04F85B081468A46934675
:101C00001C46DDE90F78129D002003903F2C03D97C
:101C10002A2005B0BDE8F08FFEF708FB03902248AC
:101C2000007820B10398FEF705FB3C20F1E71F4840
:101C300050F8240088BB01201C4941F82400039877
:101C4000FEF7F8FA2A464146384600F05BFE2B467E
:101C50005A465146484600F0B9F904901198CDE92A
:101C6000008002953A4620460E9B049900F03AFD0A
:101C7000064636B90E48007801280CD100F0E2FC87
:101C800009E0FEF7D3FA03900020084941F8240048
:101C90000398FEF7CFFA3046BBE7FFE70398FEF75D
:101CA000C9FA2820B5E7000049000020500C0020A8
:101CB00056000020704700002DE9F041054600273E
:101CC0004D48007810B14020BDE8F0813F2D01D192
:101CD0003E20F9E73F2D03D3FF2D01D02A20F3E763
:101CE000FEF7A4FA0746FF2D03D14448006890F898
:101CF0003650434850F8254024B93846FEF79AFA42
:101D00004320E1E7012C04D13846FEF793FA3D2049
:101D1000DAE714F8380F3B49085C6178884321788A
:101D2000384A505414F838091146085C30B994F810
:101D30003A1035480078884333490870E06918B193
:101D40002046E16900F0A4FA206A18B12046216A11
:101D500000F0B3FAA66A16B1304600F0F7FA002098
:101D6000206384F8340084F8350028480078FF2880
:101D700004D226480078401C244908703846FEF7F3
:101D800059FA00F084FAFEF751FA07461F48007826
:101D900020B11E480078401E1C490870204600F003
:101DA00041F81B480078401E19490870002014496A
:101DB00041F82500A06930B90020616988611549A2
:101DC0006069086005E0D4E905014861D4E90510BF
:101DD00088611148006860610F4804600FA02065A9
:101DE0003846FEF727FA0E480078012801D100F0A6
:101DF00029FC002068E70000490000205C0000206A
:101E0000500C00204E0000204D0000204A00002011
:101E10005700002068000020600000203F00000004
:101E200056000020704700002DE9F04104460027CD
:101E30003F2C02D13E20BDE8F0813F2C03D3FF2C84
:101E400001D02A20F7E7FF2C0BD1FEF7EFF9074668
:101E50001148006890F83B603846FEF7EBF93046D1
:101E6000E9E7FEF7E3F907460C4850F8245025B996
:101E70003846FEF7DFF94320DDE7012D04D138466F
:101E8000FEF7D8F93D20D6E73F2085F83B003846DD
:101E9000FEF7D0F90020CEE75C000020500C0020B7
:101EA000704700002DE9F04105460F4614464FF0FB
:101EB00000083F2D05D9FF2D03D02A202070BDE852
:101EC000F08117B90C202070F9E71448007810B1A0
:101ED00012202070F3E7FEF7A9F98046FF2D03D109
:101EE0000F48006890F836500E4850F825602EB91B
:101EF0004046FEF79FF943202070E0E7012E05D110
:101F00004046FEF797F943202070D8E737654046F2
:101F1000FEF790F90020207000BFD0E749000020B4
:101F20005C000020500C0020704700002DE9F047B5
:101F300006460C464FF0000A3F2E04D9FF2E02D071
:101F40002A20BDE8F0870CB90920FAE700202060BC
:101F50006060FEF76BF98246FF2E03D119480068D6
:101F600090F83660184850F8265025B95046FEF7CC
:101F700061F94320E5E7012D04D15046FEF75AF9F7
:101F80004320DEE7287C00F0010020B95046FEF730
:101F900051F94520D5E70027D5F80C90D5F80880F1
:101FA0005046FEF747F900E07F1C58F8041B002953
:101FB000FAD0B8002060A9EB070080006060002024
:101FC000BFE700005C000020500C002070B5044604
:101FD00010464FF080750560051F28462C606FF095
:101FE0000106051F28462E604FF01236051F2846B1
:101FF0002E604FF00336051F28462E604FF0023644
:10200000051F28462E607610051F28462E60051FE6
:10201000284629604FF01136051F28462E604FF0E4
:102020001036051F28462E604FF00936051F28463A
:102030002E604FF00836051F28462E604FF00736F9
:10204000051F28462E604FF00636051F28462E60D5
:102050004FF00536051F28462E604FF00436051F49
:1020600028462E6070BD00002DE9F04105464FF076
:1020700000083F2D02D14720BDE8F0813F2D03D35A
:10208000FF2D01D02A20F7E7FEF7D0F88046FF2D7C
:1020900005D12048006890F83650012608E01D4818
:1020A000006890F83600A84201D1012600E0002621
:1020B000194850F8254024B94046FEF7BBF848209F
:1020C000DAE7012C04D14046FEF7B4F84320D3E709
:1020D00094F838701148C05D94F8391088430F495E
:1020E000C8550846C05D30B994F83A100C480078DD
:1020F00088430B49087094F8340040F0080084F8D5
:1021000034004046FEF796F8012E01D100F09AFA0D
:102110000020B1E75C000020500C00204E000020A1
:102120004D0000207047000070B505460026174896
:10213000007800B170BD1648007800B1FAE71DB311
:10214000FEF774F806461348006890F838401248C5
:10215000005D1049096891F8391088430E49085507
:102160000846005D40B90B48006890F83A100B48EB
:1021700000788843094908700648006805633046BE
:10218000FEF758F800F05EFA00BFD3E749000020E0
:102190004A0000205C0000204E0000204D0000207E
:1021A00070B5002600F072F8FEF740F80646314898
:1021B0000068401C2F4908603046FEF73BF82E4867
:1021C0000078012853D12D48007820B1012804D08F
:1021D000022809D103E001250BE0002509E00125D3
:1021E00001202649087004E00125002023490870D9
:1021F00000BF00BF05B970BD2148046833E0FEF799
:1022000015F80646206B50B3206B401E2063206BF0
:1022100028BB94F8340000F0370040B114F8340FB4
:1022200000F0C800207001206070343C02E0002003
:1022300084F8350094F8340000F0080078B9383498
:10224000A0781049097808430E49087020780E4993
:10225000085C6178084314F838190B4A50546469D3
:102260003046FDF7E7FF94F836003F28C7D100BF9E
:10227000C1E7000078000020560000206C0000201C
:10228000680000204D0000204E000020704770477D
:1022900010B590F8382001F10B039B5C90F83940A1
:1022A000A34301F10B04A35423469B5C23B98B7A0F
:1022B00090F83A40A3438B7210BDF0B5024612F875
:1022C000384F95785678383A0B4618680FE000F189
:1022D0000B073F5DB74300F10B0C0CF80470674629
:1022E0003F5D17B9877AAF4387721B1D18680028B6
:1022F000EDD1F0BD2DE9F0415021114800F044F935
:1023000000250DE0681C86B20D4800EB051400EBBB
:1023100006170020207067600AA0E060681C85B284
:10232000042DEFD3064800EB0514002020706060F8
:1023300004A0E060024804490860BDE8F0810000A4
:10234000000800203F0000003800002030B50146A2
:102350004A6808682AB9CC68606028B100254560E1
:1023600002E0106000B142608B6800259D6230BDC4
:1023700070B54FF4C071134800F006F9002411E065
:10238000601C85B204EB44000E4901EBC00305EB71
:10239000450001EBC006002018705E600AA058617D
:1023A000601C84B20F2CEBD304EB4400054901EB15
:1023B000C00300201870586003A058610846034904
:1023C000086070BD800600203F000000340000203F
:1023D00000200A4908600A4908700A4908700A4939
:1023E00008700A4908700A4908600A4908600A49E1
:1023F00008600A4908600A490870704778000020A0
:10240000490000204A00002057000020560000200C
:102410003000002058000020440000204000002030
:102420004800002000210A4A1170002004E0002129
:10243000084A1154411CC8B20828F8D30021064AA2
:102440001170064A1170064A1160064A1160704701
:102450004D0000204E0000204B0000204C000020CA
:10246000640000205C00002070B54FF4F261194850
:1024700000F08AF84FF48071174800F085F80024C6
:1024800013E0601CC5B204EB440000EBC40011492A
:1024900001EBC00305EB450000EBC50001EBC006F6
:1024A0005E610EA01865601CC4B2152CE9D304EB64
:1024B000440000EBC400074901EBC0030020586151
:1024C00006A0186500200649086002480549086012
:1024D00070BD0000500D0020500C00203F00000097
:1024E000680000206000002000B587B003200021B4
:1024F00080220A4BCDE90132CDE903104FF6FF707F
:102500003F23074A00900748FFF774FB06AA06A17D
:102510003F20FFF7C7FC07B000BD0000500A0020B5
:102520004C0C00201928000875432F4F532D4949A2
:102530002049646C6500000000B587B003200021CD
:1025400080220A4BCDE90132CDE903104FF6FE702F
:102550003E23074A00900748FFF74CFB06AA06A156
:102560003E20FFF79FFC07B000BD00005008002090
:102570004C0A00204128000875432F4F532D49492C
:10258000205374617400000004E0002200F8012B65
:102590004A1E91B20029F8D17047000070B5782129
:1025A0001148FFF7F1FF00240EE004EB44000E4950
:1025B00001EBC005601C00EB400001EBC00068604F
:1025C0000AA06861601C84B2042CEED304EB4400C2
:1025D000054901EBC0050020686004A06861084659
:1025E0000349086070BD0000E01400203F000000B7
:1025F000700000202DE9F04160211048FFF7C4FF72
:1026000000240DE0601C86B204EB44000B4901EB92
:10261000C00506EB460001EBC0072F60601C84B2CA
:10262000032CEFD304EB4400044901EBC005002068
:102630002860084602490860BDE8F081581500206E
:102640007400002010B50024FDF7F0FD0446134887
:102650000078F8B912480078E0B900F02DF8114878
:102660001149097850F82100104908600E48007897
:102670000F49097888420DD00C480068C06B401C97
:102680000A490968C8630B480068401C094908608A
:10269000FDF7E2FD2046FDF7CDFD10BD490000200D
:1026A0004A000020500C00204C0000206400002054
:1026B0004B000020300000200649074A1278885C51
:1026C0000649095C034A515C01EBC001044A1170E0
:1026D00070470000703600084D0000204E000020BA
:1026E0004C0000202DE9F84F05460F4690469946CC
:1026F000DDE90AAB00200090FDF798FD00903F480F
:102700000468002C75D01C3454F8080C3B49086050
:102710000098FDF78FFD44F81C7CA57600202076FC
:102720006076606144F818BC44F810AC44F8148C2E
:102730000C9824F80C0C24F80A9C0020E077E81090
:10274000207705F00700E076217F01208840A07700
:10275000E17E012088406077002020606060E060BA
:10276000A0602062A0626062E062206324A06063D7
:102770001C3C002606E0002104F1540040F826101D
:10278000701CC6B2002EF6D02046FFF7DDF92046B9
:10279000FFF790FAFDF74AFD00901A4840F82540EF
:1027A0001948006860610020A0611748006810B1F6
:1027B000154800688461144804603834A0781349CF
:1027C000097808431149087020781149085C61783C
:1027D000084314F838190E4A50540E480078401C2B
:1027E0000C4908700098FDF725FD0020BDE8F88F22
:1027F000FFE70098FDF71EFD4220F7E7600000208C
:102800003F000000500C0020680000204D00002018
:102810004E00002057000020002400BF00BFFDF73D
:1028200005FD044605480068401C04490860204630
:10283000FDF700FDFFF734FBF1E700005800002032
:10284000002400BF02E0C820FFF76EFC19480078A2
:102850000028F8D0184800686421B0FBF1F0164950
:1028600008600846006828B9002014490870FF2055
:10287000FFF7FAFB00BFFDF7D9FC044610480068DB
:102880001049086000200E4908602046FDF7D2FC80
:102890000C48006808490968B0FBF1F0C0F1640019
:1028A00006490870FFF740FB00F00EF86420FFF7C0
:1028B0003BFCE0E748000020400000203C000020F6
:1028C00058000020440000207CB5002514E0694633
:1028D0002846FFF72BFB064666B9094850F8254005
:1028E00044B1012C06D0D4E9020100EB8100A064C0
:1028F0000198E064681CC5B23F2DE8D97CBD00009A
:10290000500C002002F0010343B102F002032BB18E
:1029100002E0491E002308C00029FAD170470000D8
:1029200029B1064A92690243044B9A6104E0034AC2
:1029300092698243014B9A61704700000010024087
:1029400030B500210022002400232D4D6D6805F0D4
:102950000C0121B1042905D0082923D105E0294D16
:10296000056022E0274D05601FE0254D6D6805F4E8
:102970007012234D6D6805F48034022505EB9242F8
:102980001CB9214D554305600BE01D4D6D6805F4E4
:1029900000351DB11C4D5543056002E0194D5543EE
:1029A000056002E0174D056000BF00BF144D6D6863
:1029B00005F0F0010909154D6B5C0568DD404560C7
:1029C0000F4D6D6805F4E061090A104D6B5C4568B8
:1029D000DD4085600A4D6D6805F46051C90A0B4DF4
:1029E0006B5C4568DD40C560054D6D6805F4404190
:1029F000890B074D6B5CC568B5FBF3F5056130BD10
:102A00000010024000127A0000093D00080000207A
:102A100018000020704710B500F002F810BD00004B
:102A20000CB50020019000903348006840F48030DD
:102A30003149086000BF3048006800F40030009061
:102A40000198401C0190009818B90198B0F5A06F4A
:102A5000F1D12948006800F4003010B10120009045
:102A600001E0002000900098012843D1234800682D
:102A700040F01000214908600846006820F003007B
:102A800008600846006840F0020008601A48406884
:102A9000194948600846406848600846406840F464
:102AA000806048600846406820F47C104860084612
:102AB000406840F4E81048600846006840F08070C4
:102AC000086000BF0C48006800F000700028F9D0D2
:102AD0000948406820F003000749486008464068FC
:102AE00040F00200486000BF0348406800F00C005E
:102AF0000828F9D10CBD000000100240002002405F
:102B000010B5FEF77DFFFFF74BFBFEF78BFF10BD07
:102B100010B51348006840F00100114908600846EC
:102B20004068104908400E494860084600680E4950
:102B300008400B4908600846006820F480200860BF
:102B40000846406820F4FE0048604FF41F0088608B
:102B5000FFF761FF4FF000600449086010BD0000FE
:102B6000001002400000FFF8FFFFF6FE08ED00E055
:102B70004FF0E021096921F004014FF0E0221161DA
:102B80000F4909680F4AB1FBF2F10F4A1170114663
:102B900008784FF47A71484301210C4A11804FF0B4
:102BA000E021096941F002014FF0E0221161411E6C
:102BB00051611146096941F001011161704700003E
:102BC0001C00002000127A000000002002000020FB
:102BD00010B5FEF715FF0121880700F01EF8012847
:102BE00003D10121800700F015F8FEF71BFF10BD8F
:102BF00010B5FEF705FF0121054800F00EF8012889
:102C000003D10121024800F005F8FEF70BFF10BDCB
:102C100000080040CA430282704730B502460020D7
:102C200000230024158A05EA0103958905EA0104B9
:102C300013B10CB1012000E0002030BD00B585B01B
:102C400001210420FFF76CFE01210420FFF768FE3C
:102C500001218803FFF764FE4FF40070ADF8100007
:102C600001208DF8120018208DF8130004A91548D2
:102C7000FEF776FD4FF48060ADF8100001208DF86E
:102C8000120004208DF8130004A90E48FEF768FD19
:102C90004FF4964000900020ADF80400ADF8060017
:102CA000ADF80800ADF80C000C20ADF80A0069463C
:102CB000054800F025F80121034800F007F805B0A9
:102CC00000BD0000000801400038014021B18289A8
:102CD00042F40052828104E082894DF6FF731A406B
:102CE0008281704702460020B1F5007F00D100BF0D
:102CF00013880B400BB1012000E00020704700005A
:102D00002DE9F04786B005460E460024A24600BFD6
:102D1000A1460027B08900B100BF2F462C8A4CF68F
:102D2000FF700440F08804432C82AC894EF6F31007
:102D30000440B08831890843718908430443AC8159
:102D4000AC8A4FF6FF400440B0890443AC8201A82E
:102D5000FFF7F6FD1F48874202D1DDF810A001E021
:102D6000DDF80CA0A88900F4004040B10AEBCA00CD
:102D700000EB0A1031684900B0FBF1F807E00AEBFC
:102D8000CA0000EB0A1031688900B0FBF1F864203A
:102D9000B8FBF0F004012009642101FB1089A88927
:102DA00000F4004040B1322000EBC900B0FBF1F06C
:102DB00000F00700044308E0322000EB0910642112
:102DC000B0FBF1F000F00F0004432C8106B0BDE829
:102DD000F087000000380140C1F30802828070478C
:102DE00000BFFEE7490050EAC12018BF04204A0D89
:102DF00018BF40F0010040F2FF72B2EB515F08BF14
:102E000040F00200012808BF0520704730380A282A
:102E100001D2012070470020704700BF70470000BA
:102E20001CB525E0694601A8FEF7A8FB044694B945
:102E3000019800F0A5FB05462A460B460DA0FDF7BC
:102E40004BFA009800F09CFB05462A460B4611A061
:102E5000FDF742FA08E0012C03D116A0FDF73CFA79
:102E600002E018A0FDF738FA4FF47A70FEF708FC7C
:102E7000D8E70000B5B1C7B0BBB7BEB3CEC2B6C8C5
:102E8000CEAAA3BA2025302E3166A1E620200D0A55
:102E900000000000B5B1C7B0BBB7BEB3CAAAB6C880
:102EA000CEAAA3BA2025302E3166202020200D0A7C
:102EB000000000004448543131B2BBB4E6D4DAA378
:102EC000A10D0A00B2E2C1BFCAFDBEDDB8F1CABDA4
:102ED000B2BBB6D4A3A10D0A0000000070B5044631
:102EE0000D4600BF40210548FFF7FCFE0028F9D041
:102EF000E1B20248FFF770FF204670BD0038014084
:102F000010B54FF4A060FEF7C9FCFFF797FEFFF77E
:102F10002FFEFEF759FD1E23044A00210448FEF748
:102F200015FEFEF7C7FD002010BD00007C0200204A
:102F3000352F000870B506460025FEF7DFFDFDF7CA
:102F400075F905461123124A00211248FEF7FEFDCD
:102F50000C23114A00211148FEF7F8FDFF20FEF76F
:102F600063FF044664B9FF20FEF7A6FE04461CB9C1
:102F70000BA0FDF7B1F906E00EA0FDF7ADF902E0F8
:102F800011A0FDF7A9F92846FDF754F970BD00001E
:102F90007C040020E12F00087C060020212E000880
:102FA000C9BEB3FDBFAACABCC8CECEF1B3C9B9A6CB
:102FB000200D0A00BFAACABCC8CECEF1C9BEB3FD5F
:102FC000CAA7B0DC200D0A00C7EBC7F3BFAACABC72
:102FD000C8CECEF1C9BEB3FDCAA7B0DC200D0A0031
:102FE00008E00548017805A0FDF776F94FF47A70FE
:102FF000FEF746FBF5E700003C000020435055B5C6
:10300000C4CAB9D3C3C2CACEAAA3BA25642525208F
:10301000200D0A0010B500290AD00878002807D032
:1030200005487844FDF704FE002801D0002010BDBB
:103030000248784410BD00008A08000082080000A1
:1030400021F00042A2F16052B2F5801F01F000436E
:1030500028BFD2F17F6C0BD95FEA001C43EAC202A1
:1030600042EB507018BF704728BF20F00100704736
:10307000B2F5801FBCBF184670474FEA410C1CF5E3
:10308000001F02D2084600F0ECBA70B500F024FA36
:1030900000000089FFF7F6BF4FF00040A0F5800068
:1030A000704700002DE9C04130B4DFF8A0C23CEA0F
:1030B000111418BF3CEA131400F0EC8081EA0305F8
:1030C0001CEA111444EAD57418BF1CEA131500F069
:1030D000C780A4EB05044FF0004545EAC12145EA4D
:1030E000C32341EA505143EA525304F17F74994299
:1030F00004F500344FEAC0204FEAC22208BF9042D4
:1031000000F09C804FEA13650FF24016765D4FEA9F
:10311000134506FB05F7C7F1807706FB07F74FEA73
:10312000D737A7FB03687642C8F58038A7FB06CEE1
:1031300038BFA8F1010807FB08E64FF0000EA6FB18
:10314000028CE6FB03CEDCF1000CCEF1004E38BF62
:10315000AEF1010EA6FB0C584FF000074FF0000532
:10316000E6FB0E87A1FB08C6A0FB07CE16EB0E06FA
:1031700045F10005E1FB076515F1E04E7EBFA4F5C2
:1031800080345FEA46066D4116F1800745F100057F
:103190004FEA17274FEA066647EA0567A6F1DE46BB
:1031A000B6F1805F4FEA15251FD9384624F0010C8F
:1031B00005EBC471BCF1FE6F01EB0C1102D8F0BC41
:1031C000BDE8008124425CBF01F5801E9EEAC47FF9
:1031D00002D4F0BCBDE80081244238D4F0BCA1F197
:1031E000C041BDE8004100F0C5B94FEAD22242EA31
:1031F00043524FEAD323A7FB02864FEAD02040EA8E
:10320000415007FB03661EEA0E0F4FEAD12105FB72
:10321000026658BFA6EB0056B6EB00564FEA520EB8
:103220004EEAC37E18EB0E0E56EB530EBDD518EBCF
:1032300002085E417F1C55F10005B6E74FF480158A
:103240004FF000074FF000064FF00008ADE7F0BC6C
:103250004FF0000001F1C04101F00041BDE80081E4
:1032600011EA0C1F0CEA131500D00CE013EA0C1F36
:1032700000F025804FF00000F0BC81EA030101F06E
:103280000041BDE80081F0BCBDE8004181EA0301D6
:1032900000F070B9F0BCBDE8004170B500F01CF959
:1032A000097EFC3E00F007B881EA03014FF0000000
:1032B00001F00041704781EA030100F05BB9F0BC06
:1032C000BDE800414FF0000021497047FFFDFBF9C8
:1032D000F7F5F4F2F0EEEDEBE9E8E6E4E3E1E0DE49
:1032E000DDDBDAD8D7D5D4D3D1D0CFCDCCCBCAC8BB
:1032F000C7C6C5C4C2C1C0BFBEBDBCBBBAB9B8B7E2
:10330000B6B5B4B3B2B1B0AFAEADACABAAA9A8A8D4
:10331000A7A6A5A4A3A3A2A1A09F9F9E9D9C9C9BA2
:103320009A9999989797969595949393929191904D
:103330008F8F8E8E8D8C8C8B8B8A898988888787DE
:103340008685858484838382828181800000FF0753
:103350000000F87F10F0004248BF4042B0FA80F30E
:1033600010FA03F10AD0C3F11D0303F580634FEA9D
:10337000415002EB035202EBD12170474FF00000A5
:1033800070470000DFF848C170B51CEA111E1EBF6F
:103390001CEA13159EEA0C0F95EA0C0F00F06F80E3
:1033A00081EA030423EA4C134EEAD47E21EA4C114D
:1033B00041F4801143F48013AE44A1FB024CA0FB06
:1033C0000365AEF17F7E361955EB0C05A1FB034C6E
:1033D0004CF10003A0FB021C16EB0C06654153F1F7
:1033E0000003094218BF46F0010613F4007F0BD119
:1033F0004FEA03314FEA0530340341EA155140EA00
:1034000016506FF003020AE04FEAC3214FEAC520CD
:10341000F40241EA555140EA56506FF0020202EBC5
:103420002E4201EB025585EACE710AD05FEA440CC8
:1034300018BF24F0004450F1000041F1000120EADF
:10344000D47040F2FE7C624500D270BDA84214BF29
:103450004FF080444FF04044002E08BF0024BEF1DE
:10346000806FA8BFA1F1C041BDE8704080F28280AA
:103470004FF0000001F1C04101F0004170479EEAA9
:103480000C0F0CEA131518BF95EA0C0F06D04FF07D
:10349000000081EA030E0EF0004170BD00F01CF840
:1034A0008900013E00F007B800F009B84FEA430C6C
:1034B0005FEA5C5C08D081EA030100F05BB84FEA88
:1034C000410C5FEA5C5CF6D14FF0000001497047A7
:1034D0000000FF070000F87F0EF1020E2EF0030E31
:1034E0005EF8046B364205D4012A43EB030515F55B
:1034F000001F12D8012841EB010C1CF5001F0CD84D
:103500000ED14FEAD17C15F5001F0CEB4C0C0CF1E1
:10351000020C08BF4CEBD37C04E04FF0080C01E038
:103520004FEAD37C0CEB4C0526FA05F606F00706AD
:10353000B6F1040C06D20EEB860CBDE870404CF0E0
:10354000010C6047DFE80CF0090B02024FF000416C
:103550004FF00000A1F5002170BD1946104601286A
:1035600051EB010418BFD4F5001484BF002001F012
:10357000004170BD0808A0F500114FEA3101704705
:1035800043004FEAD30C4FEA3C0C43401FBF4007B7
:103590000CF1605113F0FE4F70471CF0006F03D127
:1035A00000200CF0004170470CF0004343EA5070DB
:1035B00010B540EACC0000F00EF800BF0000009209
:1035C0004FEA0001FFF7D6BF4FF000414FF0000077
:1035D000A1F5002170470EF1020E2EF0030E5EF8E9
:1035E000044B244204D44FEA4102B2F17F4F11D878
:1035F0004FEA4003B3F17F4F0CD80ED14FEAD07C95
:10360000B2F17F4F0CEB4C0C0CF1020C08BF4CEBF1
:10361000D17C04E04FF0080C01E04FEAD17C0CEBC8
:103620004C0324FA03F404F00704B4F1040C06D2AA
:103630000EEB840CBDE810404CF0010C6047DFE855
:103640000CF0070802024FF00040A0F5800010BD0A
:103650000846420018BFD2F1807288BF00F00040D7
:1036600010BDFF2141EAD050C0057047FDF74EB8AC
:10367000000001000200010003000100020001003F
:10368000040001000200010003000100020001002B
:10369000050001000200010003000100020001001A
:1036A000040001000200010003000100020001000B
:1036B00006000100020001000300010002000100F9
:1036C00004000100020001000300010002000100EB
:1036D00005000100020001000300010002000100DA
:1036E00004000100020001000300010002000100CB
:1036F00007000100020001000300010002000100B8
:1037000004000100020001000300010002000100AA
:103710000500010002000100030001000200010099
:10372000040001000200010003000100020001008A
:103730000600010002000100030001000200010078
:10374000040001000200010003000100020001006A
:103750000500010002000100030001000200010059
:10376000040001000200010003000100020001004A
:10377000010000007856341201001000010018000A
:10378000800101000100100014000200050001008A
:103790003F00010001000500010018007800010051
:1037A00004000100040018000800010004000100EA
:1037B00001000100800001001600010001008000EE
:1037C00001000100010040005800E803010023014E
:1037D00000001000010008000A00000000000000C6
:1037E00000007E0F0400000800000000000000023E
:1037F000000100001000000002400000000000A0D6
:103800000000000005400000000000C800000000AB
:103810000C4000000000409C000000001940000027
:103820000020BCBE0000000034400000BFC91B8E59
:1038300000000004B5400000504BCFD06607E2CF37
:10384000010000006C4100003E8251AADFEEA73467
:1038500001000000D9420000DCB5A0E23A301F9719
:10386000FFFFFFFFB4450000FD25A0C8E9A3C14F3D
:10387000FFFFFFFFFF3F000000000080000000008E
:10388000FF3F00000000008000000000C838000872
:10389000000000207C0000006C0100084439000892
:1038A0007C0000209C1F0000880100081C00000014
:1038B00043000000F8FFFFFF0C0000000E000000B6
:1038C0000F0000002E0000000000000000000000BB
:1038D00000000000010203040102030406070809B6
:1038E0000204060800A24A040000000000000000D4
:1038F00001020304060708090000000000000000A0
:1039000000000000000000000000000000000000B7
:1039100000000000000000000000000000000000A7
:103920000000000000000000000000000000000097
:103930000000000000000000000000000000000087
:043940000000000083
:0400000508000131BD
:00000001FF
